:100000000C9434000C9451000C9451000C94510049
:100010000C9451000C9451000C9451000C9451001C
:100020000C9451000C9451000C9451000C9451000C
:100030000C9451000C9451000C9451000C945100FC
:100040000C9451000C9451000C9451000C945100EC
:100050000C9451000C9451000C9451000C945100DC
:100060000C9451000C94510011241FBECFEFD8E026
:10007000DEBFCDBF11E0A0E0B1E0EEE8FCE002C0E1
:1000800005900D92A63AB107D9F721E0A6EAB1E0B2
:1000900001C01D92AE3AB207E1F70E94FC010C9438
:1000A00045060C94000020918400309185008091D9
:1000B000840090918500821B930B80389E43B8F397
:1000C0000895CF93DF93EC01209721F00E94530015
:1000D0002197FACFDF91CF910895FC0181E086BB93
:1000E00026E030E0199B0AC0B09BFCCF86BB2150B4
:1000F0003109C1F760E070E0CB01089581E086BB73
:1001000026E030E0199907C0B09BFCCF86BB215098
:100110003109C1F7EFCF81E086BB40918400509157
:10012000850060E070E020E030E091E02E173F07AE
:10013000E4F4199B0CC0B09BFCCF96BB6F5F7F4F64
:10014000613084E07807A9F7D5CFB09903C0199B37
:10015000FCCF08C096BB6F5F7F4F613084E07807AB
:10016000B1F7C8CF2F5F3F4FE1CF2091840030918E
:1001700085002417350710F461507109CB01770F02
:10018000AA0BBB0BDC0199278827241B350BBC016C
:10019000CD01620F731F811D911D089580E091E0D4
:1001A0009093AB018093AA01519A50981092C50088
:1001B00080E18093C400E1ECF0E08081886080837E
:1001C00080818061808386E08093C200E0ECF0E073
:1001D00080818260808308959091C00095FFFCCF5C
:1001E0008093C6000895CF93C82F8A3019F48DE00C
:1001F0000E94EC008C2F0E94EC0080E090E0CF91F8
:1002000008958091C00087FFFCCF8091C6000895BB
:100210008091C000881F8827881F0895CF93DF939F
:10022000EC018991882319F00E94EC00FACFDF914C
:10023000CF910895CF92DF92EF92FF920F931F9389
:10024000CF93DF931F92CDB7DEB78C01C12CD12C99
:100250007B0181E0E81AF1080E940101982F99833F
:100260000E94EC009981F8019A3059F09D3049F0D4
:1002700091938F01FFEFCF1ADF0ACE14DF0461F7ED
:10028000F8011082C6010F90DF91CF911F910F915D
:10029000FF90EF90DF90CF9008955C9A85ED8A955E
:1002A000F1F700005C980895CF93DF931F92CDB7CC
:1002B000DEB787FF02C0289A01C0289886FF02C0D7
:1002C0005F9A01C05F9885FF02C05E9A01C05E9888
:1002D00084FF02C05D9A01C05D9889830E944D0130
:1002E00095ED9A95F1F70000898183FF02C0289A65
:1002F00001C0289882FF02C05F9A01C05F9881FF09
:1003000002C05E9A01C05E9880FF02C05D9A01C083
:100310005D980F90DF91CF910C944D015B9A0E94F4
:1003200054018FE39FE10197F1F700C000000895A9
:100330005B980E9454018FE19EE40197F1F700C0A1
:10034000000008955C982FEF89EF90E021508040E5
:100350009040E1F700C0000083E30E94980183E32E
:100360000E94980182E30E94980188E20E9498010D
:100370008CE00E94980181E00E9498012FEF89EFA4
:1003800090E0215080409040E1F700C000000895C7
:10039000DF92EF92FF920F931F93CF93DF937C0135
:1003A000D42E623011F080E801C080EC0E949801E8
:1003B0008FE19EE40197F1F700C000008701E8019A
:1003C000CE19DF09F80181918F01882319F00E946D
:1003D0008E01F5CFDD2041F0C031D1052CF480E253
:1003E0000E948E012196F8CFDF91CF911F910F913E
:1003F000FF90EF90DF9008950E94CE002198299AF7
:100400008091810081608093810084EF91E00E945F
:1004100061008EE091E00E946003C5E8D1E00CE647
:1004200011E081E090E00E946D0016161706180694
:1004300019062CF59F938F937F936F930E94BE02B2
:1004400020E23CEB4EEB5EE40E944A029B01AC01D1
:1004500060E070E080E89FE30E944A029F938F93E0
:100460007F936F931F930F930E944A038DB79EB79C
:100470000A960FB6F8949EBF0FBE8DBF06C0DF93DD
:10048000CF930E944A030F900F9088EC90E00E9457
:100490006100C7CF0E945E020C9410030E94090302
:1004A00058F00E94020340F029F45F3F29F00C94B9
:1004B000F90251110C9444030C94FF020E94210391
:1004C00068F39923B1F3552391F3951B550BBB2783
:1004D000AA2762177307840738F09F5F5F4F220FC8
:1004E000331F441FAA1FA9F335D00E2E3AF0E0E8BF
:1004F00032D091505040E695001CCAF72BD0FE2F09
:1005000029D0660F771F881FBB1F2617370748079C
:10051000AB07B0E809F0BB0B802DBF01FF27935854
:100520005F4F3AF09E3F510578F00C94F9020C941D
:1005300044035F3FE4F3983ED4F38695779567953F
:10054000B795F7959F5FC9F7880F911D9695879589
:1005500097F90895E1E0660F771F881FBB1F6217A8
:1005600073078407BA0720F0621B730B840BBA0B66
:10057000EE1F88F7E0950895E89409C097FB3EF4D4
:1005800090958095709561957F4F8F4F9F4F9923E0
:10059000A9F0F92F96E9BB279395F695879577955E
:1005A0006795B795F111F8CFFAF4BB0F11F460FF1E
:1005B0001BC06F5F7F4F8F4F9F4F16C0882311F076
:1005C00096E911C0772321F09EE8872F762F05C08A
:1005D000662371F096E8862F70E060E02AF09A9525
:1005E000660F771F881FDAF7880F9695879597F91A
:1005F000089597F99F6780E870E060E008959FEFA5
:1006000080EC089500240A941616170618060906A9
:10061000089500240A941216130614060506089578
:10062000092E0394000C11F4882352F0BB0F40F400
:10063000BF2B11F460FF04C06F5F7F4F8F4F9F4F40
:10064000089557FD9058440F551F59F05F3F71F0C2
:100650004795880F97FB991F61F09F3F79F0879529
:100660000895121613061406551FF2CF4695F1DFB2
:1006700008C0161617061806991FF1CF8695710542
:10068000610508940895E894BB2766277727CB0176
:1006900097F90895A0E0B0E0E0E5F3E00C941E06C1
:1006A000AE014B5F5F4FFA0161917191AF01809193
:1006B000AA019091AB010E949003E2E00C943A06EB
:1006C0000F931F93CF93DF93E091AA01F091AB01B9
:1006D000238121FF1BC08C01D0E0C0E0F801819193
:1006E0008F016091AA017091AB01DB011896ED9129
:1006F000FC911997882331F00995892B79F3DFEF65
:10070000CFEFECCF8AE00995892B19F08FEF9FEF9F
:1007100002C08D2F9C2FDF91CF911F910F910895D3
:10072000ACE0B0E0E6E9F3E00C940E067C016B016E
:100730008A01FC0117821682838181FFBDC1CE012F
:1007400001964C01F7019381F60193FD859193FF8A
:1007500081916F01882309F4ABC1853239F493FD8F
:10076000859193FF81916F01853229F4B70190E063
:100770000E947805E7CF512C312C20E02032A0F4E4
:100780008B3269F030F4803259F0833269F42061A1
:100790002CC08D3239F0803339F4216026C02260BC
:1007A000246023C0286021C027FD27C030ED380F0A
:1007B0003A3078F426FF06C0FAE05F9E300D11242F
:1007C000532E13C08AE0389E300D1124332E206240
:1007D0000CC08E3221F426FD6BC1206406C08C361D
:1007E00011F4206802C0883641F4F60193FD85912A
:1007F00093FF81916F018111C1CF982F9F7D9554F7
:10080000933028F40C5F1F4FFFE3F9830DC083364C
:1008100031F0833771F0833509F05BC022C0F801F5
:10082000808189830E5F1F4F44244394512C5401CF
:1008300015C03801F2E06F0E711CF801A080B18084
:1008400026FF03C0652D70E002C06FEF7FEFC5018A
:100850002C870E946D052C0183012C852F77222E79
:1008600017C03801F2E06F0E711CF801A080B18052
:1008700026FF03C0652D70E002C06FEF7FEFC5015A
:100880002C870E9462052C012C852068222E830172
:1008900023FC1BC0832D90E048165906B0F4B70125
:1008A00080E290E00E9478053A94F4CFF50127FCAD
:1008B000859127FE81915F01B70190E00E94780544
:1008C00031103A94F1E04F1A51084114510471F774
:1008D000E5C0843611F0893639F5F80127FF07C0E5
:1008E00060817181828193810C5F1F4F08C060819C
:1008F0007181072E000C880B990B0E5F1F4F2F760E
:10090000722E97FF09C090958095709561957F4FE5
:100910008F4F9F4F2068722E2AE030E0A4010E9482
:10092000B005A82EA81844C0853729F42F7EB22E12
:100930002AE030E025C0F22FF97FBF2E8F36C1F0BC
:1009400018F4883579F0B4C0803719F0883721F071
:10095000AFC02F2F2061B22EB4FE0DC08B2D84604E
:10096000B82E09C024FF0AC09F2F9660B92E06C07A
:1009700028E030E005C020E130E002C020E132E0B4
:10098000F801B7FE07C060817181828193810C5F9D
:100990001F4F06C06081718180E090E00E5F1F4FA5
:1009A000A4010E94B005A82EA818FB2DFF777F2E6A
:1009B00076FE0BC0372D3E7FA51450F474FE0AC09E
:1009C00072FC08C0372D3E7E05C0BA2C372D03C0FF
:1009D000BA2C01C0B52C34FF0DC0FE01EA0DF11D8B
:1009E0008081803311F4397E09C032FF06C0B39490
:1009F000B39404C0832F867809F0B39433FD13C0F9
:100A000030FF06C05A2CB31418F4530C5B18B32CE7
:100A1000B31468F4B70180E290E03C870E94780547
:100A2000B3943C85F5CFB31410F43B1801C0312CBE
:100A300034FF12C0B70180E390E03C870E94780544
:100A40003C8532FF17C031FD03C088E790E002C04B
:100A500088E590E0B7010CC0832F867859F031FF0C
:100A600002C08BE201C080E237FD8DE2B70190E069
:100A70000E947805A51438F4B70180E390E00E9445
:100A800078055A94F7CFAA94F401EA0DF11D8081FC
:100A9000B70190E00E947805A110F5CF332009F44A
:100AA00051CEB70180E290E00E9478053A94F6CFEB
:100AB000F7018681978102C08FEF9FEF2C96E2E1CC
:100AC0000C942A06FC010590615070400110D8F783
:100AD000809590958E0F9F1F0895FC016150704086
:100AE00001900110D8F7809590958E0F9F1F089563
:100AF0000F931F93CF93DF93FB01238121FD03C04D
:100B00008FEF9FEF28C022FF16C0468157812481B6
:100B100035814217530744F4A081B1819D012F5FB5
:100B20003F4F318320838C93268137812F5F3F4F46
:100B30003783268310C0EB01092F182F0084F1851D
:100B4000E02D0995892BE1F68E819F8101969F8387
:100B50008E83812F902FDF91CF911F910F91089558
:100B6000FA01AA27283051F1203181F1E8946F93DE
:100B70006E7F6E5F7F4F8F4F9F4FAF4FB1E03ED084
:100B8000B4E03CD0670F781F891F9A1FA11D680F22
:100B9000791F8A1F911DA11D6A0F711D811D911D55
:100BA000A11D20D009F468943F912AE0269F1124CA
:100BB0003019305D3193DEF6CF010895462F47702E
:100BC000405D4193B3E00FD0C9F7F6CF462F4F7089
:100BD000405D4A3318F0495D31FD4052419302D0E7
:100BE000A9F7EACFB4E0A69597958795779567958D
:100BF000BA95C9F700976105710508959B01AC018D
:100C00000A2E06945795479537952795BA95C9F7B3
:100C1000620F731F841F951FA01D08952F923F928E
:100C20004F925F926F927F928F929F92AF92BF92FC
:100C3000CF92DF92EF92FF920F931F93CF93DF93A8
:100C4000CDB7DEB7CA1BDB0B0FB6F894DEBF0FBE05
:100C5000CDBF09942A88398848885F846E847D8452
:100C60008C849B84AA84B984C884DF80EE80FD8054
:100C70000C811B81AA81B981CE0FD11D0FB6F894CA
:0E0C8000DEBF0FBECDBFED010895F894FFCF8B
:100C8E000000000200000000F300000000005065AC
:100C9E0072696F64206D6561737572656D656E74D2
:100CAE00207573696E6720746865206672656520AD
:100CBE0072756E6E696E6720636F756E74657220E5
:100CCE006F662074696D657220312E0A436F6E6EE9
:100CDE00656374207369676E616C20746F20504277
:100CEE0031202870696E203135292E00663D25662B
:100CFE00487A2028636F756E743D256C7529202007
:100D0E002020200D004E4F205349474E414C2020AD
:100D1E0020202020202020202020202020202020C5
:060D2E002020200D000052
:00000001FF
