:100000000C9434000C9451000C9451000C94510049
:100010000C9451000C9451000C9451000C9451001C
:100020000C9451000C9451000C9451000C9451000C
:100030000C9451000C9451000C9451000C945100FC
:100040000C9451000C9451000C9451000C945100EC
:100050000C9451000C9451000C9451000C945100DC
:100060000C9451000C94510011241FBECFEFD8E026
:10007000DEBFCDBF11E0A0E0B1E0E0E3FDE002C0F3
:1000800005900D92A43BB107D9F721E0A4EBB1E0B4
:1000900001C01D92AC3BB207E1F70E9454020C94E0
:1000A00096060C9400002091840030918500809188
:1000B000840090918500821B930B80389E43B8F397
:1000C0000895CF93DF93EC01209721F00E94530015
:1000D0002197FACFDF91CF910895BF92CF92DF920F
:1000E000EF92FF920F931F93CF93DF938C0181E0E8
:1000F00086BB8EE091E00E94B103C6E0D0E0FF2411
:10010000F394199B0DC08EE290E00E94AA03B09B6D
:10011000F8CFF6BA2197A9F7C12CD12C76018AC065
:100120008BE191E00E94B10381E191E00E94B10373
:1001300081E086BBC6E0D0E0FF24F39419990AC0A1
:100140008DE290E00E94AA03B09BF8CFF6BA219707
:10015000A9F7E2CF8BE191E00E94B10384E191E045
:100160000E94B10381E086BBC0918400D0918500DC
:10017000C12CD12CE12CF12CBB24B394E016F10658
:10018000C4F587E191E00E94B103199B10C08AE198
:1001900091E00E94B103B09BF8CFB6BA8FEFC81AB6
:1001A000D80A81E0C81684E0D80679F7B5CF8BE18C
:1001B00091E00E94B1038DE191E00E94B103199991
:1001C00010C086E290E00E94AA03B09BF8CFB6BAB6
:1001D0008FEFC81AD80A81E0C81684E0D80679F7EC
:1001E0009BCF8BE191E00E94B1038FEFE81AF80AF0
:1001F000C5CF80918400909185000D2C000CEE08F5
:10020000FF087601DD24CC248C1B9D0BC80ED91E63
:10021000E11CF11CFF92EF92DF92CF9280E291E01D
:100220009F938F930E9494030F900F900F900F90C5
:100230000F900F90C701B601DF91CF911F910F91E1
:10024000FF90EF90DF90CF90BF90089580E091E015
:100250009093B9018093B801519A50981092C500BB
:1002600080E18093C400E1ECF0E0808188608083CD
:1002700080818061808386E08093C200E0ECF0E0C2
:1002800080818260808308959091C00095FFFCCFAB
:100290008093C6000895CF93C82F8A3019F48DE05B
:1002A0000E9444018C2F0E94440180E090E0CF9195
:1002B00008958091C00087FFFCCF8091C60008950B
:1002C0008091C000881F8827881F0895CF93DF93EF
:1002D000EC018991882319F00E944401FACFDF9143
:1002E000CF910895CF92DF92EF92FF920F931F93D9
:1002F000CF93DF931F92CDB7DEB78C01C12CD12CE9
:100300007B0181E0E81AF1080E945901982F998336
:100310000E9444019981F8019A3059F09D3049F0CA
:1003200091938F01FFEFCF1ADF0ACE14DF0461F73C
:10033000F8011082C6010F90DF91CF911F910F91AC
:10034000FF90EF90DF90CF9008955C9A85ED8A95AD
:10035000F1F700005C980895CF93DF931F92CDB71B
:10036000DEB787FF02C0289A01C0289886FF02C026
:100370005F9A01C05F9885FF02C05E9A01C05E98D7
:1003800084FF02C05D9A01C05D9889830E94A50127
:1003900095ED9A95F1F70000898183FF02C0289AB4
:1003A00001C0289882FF02C05F9A01C05F9881FF58
:1003B00002C05E9A01C05E9880FF02C05D9A01C0D3
:1003C0005D980F90DF91CF910C94A5015B9A0E94EC
:1003D000AC018FE39FE10197F1F700C000000895A1
:1003E0005B980E94AC018FE19EE40197F1F700C099
:1003F000000008955C982FEF89EF90E02150804035
:100400009040E1F700C0000083E30E94F00183E325
:100410000E94F00182E30E94F00188E20E94F00154
:100420008CE00E94F00181E00E94F0012FEF89EF43
:1004300090E0215080409040E1F700C00000089516
:10044000DF92EF92FF920F931F93CF93DF937C0184
:10045000D42E623011F080E801C080EC0E94F001DF
:100460008FE19EE40197F1F700C000008701E801E9
:10047000CE19DF09F80181918F01882319F00E94BC
:10048000E601F5CFDD2041F0C031D1052CF480E24A
:100490000E94E6012196F8CFDF91CF911F910F9135
:1004A000FF90EF90DF9008950E9426012198299AED
:1004B0008091810081608093810084EF91E00E94AF
:1004C000610086E291E00E94B103CDE8D1E004E84A
:1004D00011E081E090E00E946D00161617061806E4
:1004E00019067CF40E94080320E23CEB4EEB5EE42C
:1004F0000E9494029F938F937F936F931F930F9308
:1005000006C09F938F937F936F93DF93CF930E9447
:1005100094030F900F900F900F900F900F9088EC16
:1005200090E00E946100D5CF0E94A8020C945A036B
:100530000E94530358F00E944C0340F029F45F3F9F
:1005400029F00C94430351110C948E030C9449032D
:100550000E946B0368F39923B1F3552391F3951B24
:10056000550BBB27AA2762177307840738F09F5FD4
:100570005F4F220F331F441FAA1FA9F335D00E2E41
:100580003AF0E0E832D091505040E695001CCAF7AE
:100590002BD0FE2F29D0660F771F881FBB1F261771
:1005A00037074807AB07B0E809F0BB0B802DBF0148
:1005B000FF2793585F4F3AF09E3F510578F00C9417
:1005C00043030C948E035F3FE4F3983ED4F3869587
:1005D00077956795B795F7959F5FC9F7880F911D38
:1005E0009695879597F90895E1E0660F771F881F24
:1005F000BB1F621773078407BA0720F0621B730BD7
:10060000840BBA0BEE1F88F7E0950895E89409C0B3
:1006100097FB3EF490958095709561957F4F8F4F35
:100620009F4F9923A9F0F92F96E9BB279395F6954B
:10063000879577956795B795F111F8CFFAF4BB0FC9
:1006400011F460FF1BC06F5F7F4F8F4F9F4F16C02D
:10065000882311F096E911C0772321F09EE8872FB7
:10066000762F05C0662371F096E8862F70E060E073
:100670002AF09A95660F771F881FDAF7880F9695EC
:10068000879597F9089597F99F6780E870E060E093
:1006900008959FEF80EC089500240A94161617061B
:1006A00018060906089500240A9412161306140663
:1006B00005060895092E0394000C11F4882352F0C6
:1006C000BB0F40F4BF2B11F460FF04C06F5F7F4F7E
:1006D0008F4F9F4F089557FD9058440F551F59F065
:1006E0005F3F71F04795880F97FB991F61F09F3F1F
:1006F00079F087950895121613061406551FF2CF48
:100700004695F1DF08C0161617061806991FF1CF97
:1007100086957105610508940895E894BB276627BE
:100720007727CB0197F90895A0E0B0E0EAE9F3E07C
:100730000C946F06AE014B5F5F4FFA0161917191AE
:10074000AF018091B8019091B9010E94E103E2E00C
:100750000C948B066091B8017091B9010E94C90593
:1007600008950F931F93CF93DF93E091B801F09119
:10077000B901238121FF1BC08C01D0E0C0E0F8014A
:1007800081918F016091B8017091B901DB011896D8
:10079000ED91FC911997882331F00995892B79F314
:1007A000DFEFCFEFECCF8AE00995892B19F08FEFBF
:1007B0009FEF02C08D2F9C2FDF91CF911F910F9142
:1007C0000895ACE0B0E0E7EEF3E00C945F067C0146
:1007D0006B018A01FC0117821682838181FFBDC1F2
:1007E000CE0101964C01F7019381F60193FD8591AD
:1007F00093FF81916F01882309F4ABC1853239F4ED
:1008000093FD859193FF81916F01853229F4B701A2
:1008100090E00E94C905E7CF512C312C20E0203216
:10082000A0F48B3269F030F4803259F0833269F4ED
:1008300020612CC08D3239F0803339F4216026C01C
:100840002260246023C0286021C027FD27C030ED2E
:10085000380F3A3078F426FF06C0FAE05F9E300D7C
:100860001124532E13C08AE0389E300D1124332EEC
:1008700020620CC08E3221F426FD6BC1206406C0BC
:100880008C3611F4206802C0883641F4F60193FDDD
:10089000859193FF81916F018111C1CF982F9F7D29
:1008A0009554933028F40C5F1F4FFFE3F9830DC07C
:1008B000833631F0833771F0833509F05BC022C095
:1008C000F801808189830E5F1F4F44244394512C8B
:1008D000540115C03801F2E06F0E711CF801A080C0
:1008E000B18026FF03C0652D70E002C06FEF7FEF7F
:1008F000C5012C870E94BE052C0183012C852F7712
:10090000222E17C03801F2E06F0E711CF801A08092
:10091000B18026FF03C0652D70E002C06FEF7FEF4E
:10092000C5012C870E94B3052C012C852068222E3E
:10093000830123FC1BC0832D90E048165906B0F4B8
:10094000B70180E290E00E94C9053A94F4CFF50126
:1009500027FC859127FE81915F01B70190E00E94FD
:10096000C90531103A94F1E04F1A5108411451046D
:1009700071F7E5C0843611F0893639F5F80127FFA3
:1009800007C060817181828193810C5F1F4F08C015
:1009900060817181072E000C880B990B0E5F1F4F31
:1009A0002F76722E97FF09C090958095709561956E
:1009B0007F4F8F4F9F4F2068722E2AE030E0A401B6
:1009C0000E940106A82EA81844C0853729F42F7E5E
:1009D000B22E2AE030E025C0F22FF97FBF2E8F36ED
:1009E000C1F018F4883579F0B4C0803719F0883731
:1009F00021F0AFC02F2F2061B22EB4FE0DC08B2D81
:100A00008460B82E09C024FF0AC09F2F9660B92EBB
:100A100006C028E030E005C020E130E002C020E15F
:100A200032E0F801B7FE07C0608171818281938155
:100A30000C5F1F4F06C06081718180E090E00E5F07
:100A40001F4FA4010E940106A82EA818FB2DFF77B6
:100A50007F2E76FE0BC0372D3E7FA51450F474FE1A
:100A60000AC072FC08C0372D3E7E05C0BA2C372D57
:100A700003C0BA2C01C0B52C34FF0DC0FE01EA0D35
:100A8000F11D8081803311F4397E09C032FF06C028
:100A9000B394B39404C0832F867809F0B39433FDE4
:100AA00013C030FF06C05A2CB31418F4530C5B1853
:100AB000B32CB31468F4B70180E290E03C870E9445
:100AC000C905B3943C85F5CFB31410F43B1801C0AD
:100AD000312C34FF12C0B70180E390E03C870E94C4
:100AE000C9053C8532FF17C031FD03C088E790E09F
:100AF00002C088E590E0B7010CC0832F867859F0DA
:100B000031FF02C08BE201C080E237FD8DE2B70108
:100B100090E00E94C905A51438F4B70180E390E085
:100B20000E94C9055A94F7CFAA94F401EA0DF11D69
:100B30008081B70190E00E94C905A110F5CF332054
:100B400009F451CEB70180E290E00E94C9053A94C1
:100B5000F6CFF7018681978102C08FEF9FEF2C9629
:100B6000E2E10C947B06FC0105906150704001109D
:100B7000D8F7809590958E0F9F1F0895FC016150C6
:100B8000704001900110D8F7809590958E0F9F1FAF
:100B900008950F931F93CF93DF93FB01238121FDD2
:100BA00003C08FEF9FEF28C022FF16C046815781F8
:100BB000248135814217530744F4A081B1819D01FE
:100BC0002F5F3F4F318320838C93268137812F5FA6
:100BD0003F4F3783268310C0EB01092F182F008465
:100BE000F185E02D0995892BE1F68E819F81019693
:100BF0009F838E83812F902FDF91CF911F910F9133
:100C00000895FA01AA27283051F1203181F1E894A2
:100C10006F936E7F6E5F7F4F8F4F9F4FAF4FB1E0EF
:100C20003ED0B4E03CD0670F781F891F9A1FA11DEA
:100C3000680F791F8A1F911DA11D6A0F711D811DEB
:100C4000911DA11D20D009F468943F912AE0269FB0
:100C500011243019305D3193DEF6CF010895462F0F
:100C60004770405D4193B3E00FD0C9F7F6CF462FF0
:100C70004F70405D4A3318F0495D31FD4052419359
:100C800002D0A9F7EACFB4E0A69597958795779516
:100C90006795BA95C9F700976105710508959B019D
:100CA000AC010A2E06945795479537952795BA9526
:100CB000C9F7620F731F841F951FA01D08952F92FF
:100CC0003F924F925F926F927F928F929F92AF92DC
:100CD000BF92CF92DF92EF92FF920F931F93CF9329
:100CE000DF93CDB7DEB7CA1BDB0B0FB6F894DEBFC0
:100CF0000FBECDBF09942A88398848885F846E84E6
:100D00007D848C849B84AA84B984C884DF80EE802F
:100D1000FD800C811B81AA81B981CE0FD11D0FB638
:100D2000F894DEBF0FBECDBFED010895F894FFCF5C
:100D300000000002000000004B0100000000310D27
:100D400000320D00340D00350D002A0D00370D0066
:100D5000256C640D0A00506572696F64206D6561D1
:100D6000737572656D656E74207573696E67207436
:100D7000686520667265652072756E6E696E6720A3
:100D8000636F756E746572206F662074696D65722D
:100D900020312E0A436F6E6E656374207369676E2F
:100DA000616C20746F20504231202870696E2031B0
:100DB00035292E0054203D2025660D0A004E4F2077
:100DC0005349474E414C202D2D20256C6420202076
:100DD0002020202020202020202020202020202013
:040DE000200D0A00D8
:00000001FF
