:100000000C94B5000C94D2000C94D2000C94D20045
:100010000C94D2000C94D2000C94D2000C94D20018
:100020000C94D2000C94D2000C94D2000C94D20008
:100030000C94D2000C94D2000C94D2000C94D200F8
:100040000C94D2000C94D2000C94D2000C94D200E8
:100050000C94D2000C94D2000C94D2000C94D200D8
:100060000C94D2000C94D2006E616E00696E660032
:1000700000407A10F35A00A0724E18090010A5D45F
:10008000E80000E87648170000E40B54020000CABC
:100090009A3B000000E1F505000080969800000002
:1000A00040420F000000A086010000001027000061
:1000B0000000E803000000006400000000000A00E7
:1000C000000000000100000000002C76D888DC67EA
:1000D0004F0823DFC1DFAE59E1B1B796E5E3E45342
:1000E000C63AE651997696E8E6C28426EB898C9B5F
:1000F00062ED407C6FFCEFBC9C9F40F2BAA56FA5FF
:10010000F490055A2AF75C936B6CF9676DC11BFC80
:10011000E0E40D47FEF520E6B500D0ED902E03009B
:10012000943577050080841E080000204E0A0000E8
:1001300000C80C333333330F986E12831141EF8DA7
:100140002114893BE65516CFFEE6DB18D1844B38E7
:100150001BF77C1D901DA4BBE424203284725E2218
:100160008100C9F124ECA1E53D2711241FBECFEF8A
:10017000D8E0DEBFCDBF11E0A0E0B1E0EAE3F4E1FA
:1001800002C005900D92AA3CB107D9F721E0AAEC74
:10019000B1E001C01D92A23DB207E1F70E94A606A0
:1001A0000C941B0A0C94000020918400309185006F
:1001B0008091840090918500821B930B80389E4330
:1001C000B8F30895CF93DF93EC01209721F00E94BC
:1001D000D4002197FACFDF91CF910895FC0181E0FF
:1001E00086BB21E034E0199B0AC0B09BFCCF86BBE4
:1001F00021503109C1F760E070E0CB01089581E042
:1002000086BB21E034E0199907C0B09BFCCF86BBC8
:1002100021503109C1F7EFCF81E086BB40918400C6
:100220005091850060E070E020E030E091E02E1712
:100230003F07E4F4199B0CC0B09BFCCF96BB6F5FEB
:100240007F4F613084E07807A8F3D5CFB09903C021
:10025000199BFCCF08C096BB6F5F7F4F613084E075
:100260007807B0F3C8CF2F5F3F4FE1CF20918400D4
:1002700030918500CB01A0E0B0E0DC019927882710
:10028000241B350BBC01CD01620F731F811D911D15
:1002900008956F927F928F929F92AF92BF92CF926A
:1002A000DF92EF92FF920F931F93CF93DF93CDB71F
:1002B000DEB761970FB6F894DEBF0FBECDBF5B010E
:1002C0006C01922E832E742E652EDF928F93BF9237
:1002D0006F938EE091E09F938F930E9454090E9448
:1002E000D0026F927F928F929F9286E1E82E81E0FA
:1002F000F82EFF92EF928E010F5F1F4F1F930F9307
:100300000E949A0941E061E08BE191E00E94F602CF
:1003100041E062E0C8010E94F6028FE090E00E9496
:10032000E200DF92CF92BF92AF92FF92EF921F93C3
:100330000F930E949A0941E061E089E291E00E94F6
:10034000F60241E062E0C8010E94F6028FE090E010
:100350000E94E2002A2D3B2D4C2D5D2D60E070E0C7
:1003600080E89FE30E942E079F938F937F936F9364
:10037000FF92EF921F930F930E949A0941E061E070
:1003800085E391E00E94F60241E062E0C8010E942C
:10039000F6028FE090E00E94E2006F927F928F92CF
:1003A0009F92FF92EF921F930F930E949A090FB6AC
:1003B000F894DEBF0FBECDBF41E061E08BE191E07C
:1003C0000E94F60241E062E0C8010E94F6026196D6
:1003D0000FB6F894DEBF0FBECDBFDF91CF911F9156
:1003E0000F91FF90EF90DF90CF90BF90AF909F90D4
:1003F0008F907F906F90089580E091E09093CF016F
:100400008093CE01519A50981092C50080E180935C
:10041000C400E1ECF0E080818860808380818061AD
:10042000808386E08093C200E0ECF0E0808182600F
:10043000808308959091C00095FFFCCF8093C60003
:100440000895CF93C82F8A3019F48DE00E941A02C4
:100450008C2F0E941A0280E090E0CF910895809145
:10046000C00087FFFCCF8091C60008958091C00036
:10047000881F8827881F0895CF93DF93EC01899107
:10048000882319F00E941A02FACFDF91CF910895C4
:10049000CF92DF92EF92FF920F931F93CF93DF9350
:1004A0001F92CDB7DEB78C01C12CD12C7B0181E02E
:1004B000E81AF1080E942F02982F99830E941A02CD
:1004C0009981F8019A3059F09D3049F091938F014C
:1004D000FFEFCF1ADF0ACE14DF0461F7F8011082B4
:1004E000C6010F90DF91CF911F910F91FF90EF9078
:1004F000DF90CF9008955C9A85ED8A95F1F7000022
:100500005C980895CF93DF931F92CDB7DEB787FF36
:1005100002C0289A01C0289886FF02C05F9A01C0D5
:100520005F9885FF02C05E9A01C05E9884FF02C09A
:100530005D9A01C05D9889830E947B0295ED9A9532
:10054000F1F70000898183FF02C0289A01C0289832
:1005500082FF02C05F9A01C05F9881FF02C05E9A6D
:1005600001C05E9880FF02C05D9A01C05D980F9047
:10057000DF91CF910C947B025B9A0E9482028FE301
:100580009FE10197F1F700C0000008955B980E9479
:1005900082028FE19EE40197F1F700C00000089508
:1005A0005C982FEF89EF90E0215080409040E1F778
:1005B00000C0000083E30E94C60283E30E94C602DB
:1005C00082E30E94C60288E20E94C6028CE00E947A
:1005D000C60281E00E94C6022FEF89EF90E0215011
:1005E00080409040E1F700C000000895DF92EF9254
:1005F000FF920F931F93CF93DF937C01D42E623031
:1006000011F080E801C080EC0E94C6028FE19EE4F8
:100610000197F1F700C000008701E801CE19DF095A
:10062000F80181918F01882319F00E94BC02F5CF57
:10063000DD2041F0C031D1052CF480E20E94BC02E3
:100640002196F8CFDF91CF911F910F91FF90EF90FE
:10065000DF900895A3E1B0E0E0E3F3E00C94F70647
:100660006C014B012A01FC0117821682838181FFF4
:1006700043C3AE014F5F5F4F3A01F6019381F4012E
:1006800093FD859193FF81914F01882309F430C335
:10069000853239F493FD859193FF81914F01853225
:1006A00039F4B60190E00E941C0952012501E5CF02
:1006B00010E0F12C20E02032A0F48B3269F030F40D
:1006C000803259F0833269F420612CC08D3239F0C8
:1006D000803339F4216026C02260246023C0286062
:1006E00021C027FD27C030ED380F3A3078F426FFBF
:1006F00006C0FAE01F9F300D1124132F13C04AE0EB
:10070000F49E300D1124F32E20620CC08E3221F4A1
:1007100026FDEEC2206406C08C3611F4206802C0AB
:10072000883641F4F40193FD859193FF81914F0147
:100730008111C1CF9BEB980F933018F42061805E3C
:1007400006C09BE9980F933008F071C12F7E26FFF9
:1007500016E02F73322E853619F42064322E08C02D
:10076000863621F4F22FF0683F2E02C0111111508D
:1007700037FE07C01C3350F4EE24E394E10E27E06B
:100780000BC0183038F027E017E005C027E04CE335
:10079000E42E02C0212FE12C520144E0A40EB11C32
:1007A000F20160817181828193810E2DA3010E94EB
:1007B0002E082C01098100FF02C003FF07C031FC95
:1007C00008C032FE09C030E2232E07C02DE2222EDF
:1007D00004C09BE2292E01C0212C802F8C7019F0BF
:1007E000211068C2A8C237FE0FC0E40C04FF04C089
:1007F0008A81813309F4EA941E1474F5F8E0FE1539
:1008000078F588E0E82E2CC036FC2AC0812F90E0D5
:10081000841595059CF02CEF42162FEF520674F0CC
:10082000432D4068342E0AC0E2E0F0E0EC0FFD1FDB
:10083000E10FF11D8081803319F411501111F4CFB3
:1008400037FE0EC0EE24E394E10E812F90E04816AF
:1008500059062CF4141904C0EE24E39401C010E0EE
:1008600037FE06C01414150434F4C201019605C005
:1008700085E090E002C081E090E021100196112314
:1008800031F0212F30E02F5F3F4F820F931F2F2D2C
:1008900030E08217930714F4F81A01C0F12C832D6D
:1008A000897049F4FF2039F0B60180E290E00E949F
:1008B0001C09FA94F7CF222029F0B601822D90E08E
:1008C0000E941C0933FC09C0FF2039F0B60180E307
:1008D00090E00E941C09FA94F7CF37FE5AC0942D7D
:1008E000852D57FE02C090E080E0292E382E20E0B2
:1008F00030E0A2014E1951095D874C87A2014219CF
:1009000053095F874E87612F70E044275527461BA8
:10091000570B598B488B5FEF2516350649F4B60106
:100920008EE290E02A8B3B8B0E941C093B892A892E
:10093000421453046CF04C855D854215530544F414
:10094000EE85FF85E20FF31FE60DF71D818101C0E3
:1009500080E351E0251A31082F5F3F4F48895989BC
:10096000241635064CF0B60190E02A8B3B8B0E9492
:100970001C092A893B89CFCF2414350439F49A8184
:10098000963318F4953311F404FF81E3B60190E037
:100990004BC08A81813309F00F7EB60190E00E943E
:1009A0001C09111105C034FC18C085E690E017C081
:1009B000B6018EE290E00E941C0982E0EE24E394EE
:1009C000E80EF301E80FF11D8081B60190E00E946E
:1009D0001C0911508E2D91F7E6CF85E490E0B60109
:1009E0000E941C0957FC05C04114510439F404FF4E
:1009F00005C05194419451088DE201C08BE2B601CB
:100A000090E00E941C0980E39AE0491651042CF002
:100A10008F5F5AE0451A5108F7CFB60190E00E9467
:100A20001C09B601C201C0960E941C0957C1833639
:100A300031F0833779F0833509F058C021C0520175
:100A4000E2E0AE0EB11CF2018081898301E010E08A
:100A5000230114C05201F2E0AF0EB11CF20140803C
:100A6000518026FF03C0612F70E002C06FEF7FEF5F
:100A7000C2012A8B0E9411098C012A892F7715C087
:100A80005201F2E0AF0EB11CF2014080518026FF0E
:100A900003C0612F70E002C06FEF7FEFC2012A8BAD
:100AA0000E9406098C012A892068322E23FD1AC073
:100AB0008F2D90E008171907A8F4B60180E290E0A6
:100AC0000E941C09FA94F4CFF20137FC859137FE9D
:100AD00081912F01B60190E00E941C09F110FA9457
:100AE000015011090115110579F7F8C0843611F08C
:100AF000893659F5520127FF09C0F4E0AF0EB11C49
:100B0000F20160817181828193810AC0F2E0AF0EAF
:100B1000B11CF20160817181072E000C880B990BCA
:100B20002F76322E97FF09C090958095709561952C
:100B30007F4F8F4F9F4F2068322E2AE030E0A30175
:100B40000E94BD09E82EE6183FC0022F853721F428
:100B50000F7E2AE030E01DC0097F8F3691F018F437
:100B6000883559F0C5C0803719F0883711F0C0C0FA
:100B7000006104FF09C0046007C024FF08C00660CC
:100B800006C028E030E005C020E130E002C020E1EE
:100B900032E0520107FF09C0F4E0AF0EB11CF201D0
:100BA000608171818281938108C0F2E0AF0EB11C37
:100BB000F2016081718180E090E0A3010E94BD0993
:100BC000E82EE6180F77302E36FE0BC0332D3E7F11
:100BD000E11650F434FE0AC032FC08C0332D3E7ECC
:100BE00005C00E2D332D03C00E2D01C0012F34FF83
:100BF0000CC0FE01EE0DF11D8081803311F4397EB1
:100C000008C032FF05C00E5F04C0832F867809F04C
:100C10000F5F33FD13C030FF06C01E2D0F1518F4F3
:100C20001F0D101B0F2D0F1568F4B60180E290E028
:100C30003B8B0E941C090F5F3B89F5CF0F1510F409
:100C4000F01A01C0F12C34FF12C0B60180E390E02D
:100C50003B8B0E941C093B8932FF17C031FD03C04A
:100C600088E790E002C088E590E0B6010CC0832FD1
:100C7000867859F031FF02C08BE201C080E237FD77
:100C80008DE2B60190E00E941C09E11638F4B6012D
:100C900080E390E00E941C091150F7CFEA94F30121
:100CA000EE0DF11D8081B60190E00E941C09E1105B
:100CB000F5CF14C0F4E0FF1558F584E0F81A33FEC0
:100CC0001EC0211026C003FF2AC008E610E0F32D45
:100CD000F0713F2EF8018491811124C0FF2009F4A6
:100CE000E5CCB60180E290E00E941C09FA94F6CFB0
:100CF000F6018681978126C08FEF9FEF23C0B60152
:100D000080E290E00E941C09FA94F110F8CFD9CF4C
:100D1000F12CB601822D90E00E941C09D4CF0CE684
:100D200010E0D5CF31108052B60190E00E941C092E
:100D30000F5F1F4FCFCF23E02F1510F483E0BECFFE
:100D4000F12CC1CF6396E2E10C9413070E94FC01E1
:100D500021983C983B983A98299A209A8AB1886FB2
:100D60008AB98091810081608093810084EF91E055
:100D70000E94E20085E491E00E946A09C3EAD1E0A2
:100D800081E090E00E94EE0016161706180619067C
:100D9000ACF40E94A20720E034E244E75BE40E9446
:100DA0002E076B017C019B01AC0160E070E080E7E5
:100DB00092E40E942E074B015C010EC09F938F931B
:100DC0007F936F93DF93CF930E9454090F900F90FE
:100DD0000F900F900F900F90A5019401C701B601DD
:100DE0000E94490188EC90E00E94E200C9CF2F9256
:100DF0003F924F925F926F927F928F929F92AF92AB
:100E0000BF92CF92DF92EF92FF920F931F93CF93F7
:100E1000DF93CDB7DEB7CA1BDB0B0FB6F894DEBF8E
:100E20000FBECDBF09942A88398848885F846E84B4
:100E30007D848C849B84AA84B984C884DF80EE80FE
:100E4000FD800C811B81AA81B981CE0FD11D0FB607
:100E5000F894DEBF0FBECDBFED0108950E9442079A
:100E60000C94F4070E94ED0758F00E94E60740F04A
:100E700029F45F3F29F00C94DD0751110C942808E8
:100E80000C94E3070E94050868F39923B1F35523F6
:100E900091F3951B550BBB27AA276217730784078D
:100EA00038F09F5F5F4F220F331F441FAA1FA9F323
:100EB00035D00E2E3AF0E0E832D091505040E69511
:100EC000001CCAF72BD0FE2F29D0660F771F881F72
:100ED000BB1F261737074807AB07B0E809F0BB0B65
:100EE000802DBF01FF2793585F4F3AF09E3F510579
:100EF00078F00C94DD070C9428085F3FE4F3983EEB
:100F0000D4F3869577956795B795F7959F5FC9F761
:100F1000880F911D9695879597F90895E1E0660FE2
:100F2000771F881FBB1F621773078407BA0720F05B
:100F3000621B730B840BBA0BEE1F88F7E0950895C4
:100F4000E89409C097FB3EF4909580957095619563
:100F50007F4F8F4F9F4F9923A9F0F92F96E9BB2719
:100F60009395F695879577956795B795F111F8CF95
:100F7000FAF4BB0F11F460FF1BC06F5F7F4F8F4F00
:100F80009F4F16C0882311F096E911C0772321F0F6
:100F90009EE8872F762F05C0662371F096E8862F8E
:100FA00070E060E02AF09A95660F771F881FDAF7E5
:100FB000880F9695879597F9089597F99F6780E828
:100FC00070E060E008959FEF80EC089500240A949B
:100FD0001616170618060906089500240A94121614
:100FE0001306140605060895092E0394000C11F447
:100FF000882352F0BB0F40F4BF2B11F460FF04C0F4
:101000006F5F7F4F8F4F9F4F089557FD9058440F4C
:10101000551F59F05F3F71F04795880F97FB991F57
:1010200061F09F3F79F08795089512161306140614
:10103000551FF2CF4695F1DF08C0161617061806A1
:10104000991FF1CF86957105610508940895E8947C
:10105000BB2766277727CB0197F90895283008F03A
:1010600027E03327DA01990F311D87FD9160009643
:101070006105710539F432602E5F3D9330E32A95A6
:10108000E1F708959F3F30F080387105610509F060
:101090003C5F3C5F3D93913008F08068911DDF9389
:1010A000CF931F930F93FF92EF92192F987F9695EE
:1010B000E92F96959695E90FFF27E653FF4F99275D
:1010C0003327EE24FF24A701E70105900894079435
:1010D00028F4360FE71EF81E491F511D660F771FB3
:1010E000881F991F0694A1F70590079428F4E70E2E
:1010F000F81E491F561FC11D770F881F991F661FB5
:101100000694A1F70590079428F4F80E491F561F7E
:10111000C71FD11D880F991F661F771F0694A1F75F
:101120000590079420F4490F561FC71FD81F990F29
:10113000661F771F881F0694A9F784911095177072
:1011400041F0D695C79557954795F794E7941A952A
:10115000C1F7E0E7F0E0689415901591359165913D
:10116000959105907FE27395E118F10A430B560BB8
:10117000C90BD009C0F7E10CF11E431F561FC91F50
:10118000D01D7EF4703311F48A95E6CFE8940150B7
:1011900030F0080F0AF40027021708F4202F2395D7
:1011A000022F7A3328F079E37D932A95E9F710C06E
:1011B0007D932A9589F606949795679537951795A7
:1011C0001794E118F10A430B560BC90BD00998F09C
:1011D00023957E9173957A3308F070E37C93201306
:1011E000B8F77E9170617D9330F0839571E37D93C4
:1011F00070E32A95E1F71124EF90FF900F911F9172
:10120000CF91DF91992787FD90950895FC01059076
:10121000615070400110D8F7809590958E0F9F1FF8
:101220000895FC016150704001900110D8F780953D
:1012300090958E0F9F1F08950F931F93CF93DF9369
:10124000FB01238121FD03C08FEF9FEF28C022FF08
:1012500016C046815781248135814217530744F4D3
:10126000A081B1819D012F5F3F4F318320838C93FB
:10127000268137812F5F3F4F3783268310C0EB01D4
:10128000092F182F0084F185E02D0995892BE1F6AF
:101290008E819F8101969F838E83812F902FDF9176
:1012A000CF911F910F910895A0E0B0E0EAE5F9E039
:1012B0000C940707AE014B5F5F4FFA01619171918A
:1012C000AF018091CE019091CF010E942A03E2E00C
:1012D0000C9423070F931F93CF93DF93E091CE01DC
:1012E000F091CF01238121FF1BC08C01D0E0C0E031
:1012F000F80181918F016091CE017091CF01DB01E6
:101300001896ED91FC911997882331F00995892B56
:1013100079F3DFEFCFEFECCF8AE00995892B19F055
:101320008FEF9FEF02C08D2F9C2FDF91CF911F91E8
:101330000F910895AEE0B0E0E0EAF9E00C94050703
:101340000D891E8986E08C831A8309838FEF9FE7BE
:101350009E838D83AE01475E5F4F6F89788DCE018E
:1013600001960E942A032F813885F801E20FF31FAE
:1013700010822E96E4E00C942107FA01AA27283067
:1013800051F1203181F1E8946F936E7F6E5F7F4F52
:101390008F4F9F4FAF4FB1E03ED0B4E03CD0670FCE
:1013A000781F891F9A1FA11D680F791F8A1F911D21
:1013B000A11D6A0F711D811D911DA11D20D009F471
:1013C00068943F912AE0269F11243019305D3193B3
:1013D000DEF6CF010895462F4770405D4193B3E09C
:1013E0000FD0C9F7F6CF462F4F70405D4A3318F043
:1013F000495D31FD4052419302D0A9F7EACFB4E0F4
:10140000A6959795879577956795BA95C9F70097AB
:101410006105710508959B01AC010A2E069457954C
:10142000479537952795BA95C9F7620F731F841FA3
:0A143000951FA01D0895F894FFCF4A
:10143A000000000200000000210200000000253325
:10144A002E34660D0A00252E3466004375727265C5
:10145A006E742042504D3A2000506572696F6428BC
:10146A0073293A20004672657175656E637928485A
:10147A007A293A2000506572696F64206D6561733C
:10148A007572656D656E74207573696E6720746810
:10149A006520667265652072756E6E696E67206377
:1014AA006F756E746572206F662074696D6572203F
:1014BA00312E0A436F6E6E656374207369676E61BD
:1014CA006C20746F20504231202870696E203135AB
:1014DA00292E004E4F205349474E414C202D2D2096
:1014EA00256C64202020202020202020202020205D
:0A14FA00202020202020200D0A00F1
:00000001FF
